:1000000010C017C023C04DC014C013C0B5C0DDC0A0
:10001000EFC07BC00EC00DC00CC00BC00AC009C031
:1000200008C011241FBECFE5D2E0DEBFCDBFF1D0A6
:100030006AC1E6CF88E893E19BBD8ABD8EEE92E06F
:1000400099BD88BD8EB584608EBD08951F920F92B4
:100050000FB60F9211242F933F934F935F936F939B
:100060007F938F939F93AF93BF93EF93FF93CF991A
:1000700007C0CB99AE9AAB9A8EB5877009F4DADFD8
:10008000FF91EF91BF91AF919F918F917F916F9170
:100090005F914F913F912F910F900FBE0F901F9046
:1000A00018951F920F920FB60F9211242F933F9322
:1000B0004F935F936F937F938F939F93AF93BF9370
:1000C000EF93FF9383B7877039F4B19905C082E845
:1000D00086BF83B7826083BFB29906C0AF9AAC9ADD
:1000E0008EB5877009F4A6DFFF91EF91BF91AF91B4
:1000F0009F918F917F916F915F914F913F912F9140
:100100000F900FBE0F901F9018951F920F920FB671
:100110000F9211242F933F934F935F936F937F938D
:100120008F939F93AF93BF93EF93FF93B1990FC0BA
:10013000C89B05C095B380E2892785BB09C08EB5F1
:10014000877009F477DFAF9AAD9AAA9A01C0AE9A88
:1001500083B713BE12BEFF91EF91BF91AF919F91F4
:100160008F917F916F915F914F913F912F910F9060
:100170000FBE0F901F9018951F920F920FB60F92FF
:1001800011248F93AC9B05C0B29BAE9ACF9BAE9AC5
:10019000AC98AA9B03C0CF9BAE9AAA98AB9B02C017
:1001A000AF98AB98AB9B07C0AC9902C0AA9B03C0A9
:1001B000AE9AAB98AC988EB51EBC1DBC1CBC8F9182
:1001C0000F900FBE0F901F9018951F920F920FB6B1
:1001D0000F9211248F93B19905C0AE988EB51EBCB5
:1001E0001DBC1CBC8F910F900FBE0F901F901895D7
:1001F0001F920F920FB60F9211248F93AE9A8EB565
:100200001EBC1DBC1CBC8F910F900FBE0F901F9089
:100210001895D798D698D598D498D298D39AD19A39
:10022000D09ADF9ADE9ADD9ADC9ADB9ADA9AD99A2A
:10023000D89ABA98B998B89AC29AC19AC09AAF9AFD
:10024000D89AAD98DB98AE98D99885B7816085BF6C
:100250008BB780638BBF979A80B5826080BD80B575
:10026000846080BD80B7826080BF83B713BE12BE3A
:1002700089B7826089BF8FB58FBD8EB58EBD8EB5B3
:100280001EBC1DBC1CBC619A629A28E030E080E86C
:100290000FB6F89486BD26BD0FBE0000009A479A9F
:1002A000019A7894F894AF9B02C0D89A01C0D8986C
:1002B000AE9B02C0D99A01C0D998AD9B02C0DB9A0F
:1002C00001C0DB987894000083B7877019F48EB56D
:1002D000877019F085B7877E03C085B7877E8061F8
:1002E00085BF85B7846885BF8B7F85BF85B78062F2
:1002F00085BF88950000000000000000000085B761
:0A0300008F7D85BFCFCFF894FFCFAB
:00000001FF
