:1000000010C018C016C015C014C013C012C011C053
:1000100010C00FC00EC00DC00CC00BC00AC009C07C
:1000200008C011241FBECFE5D2E0DEBFCDBF11D086
:1000300037C0E6CF1F920F920FB60F921124B299DC
:1000400002C0D89A01C0D8980F900FBE0F901F9091
:100050001895D79A8AB380788ABB8BB38FEF8BBB06
:1000600087B3867F87BB88B38F6088BB85B78F7B5C
:1000700085BF009A479A85B7806285BF85B788613A
:1000800085BF85B7816085BF8BB780648BBF78944F
:1000900085B7806285BF889585B78F7D85BFF8CF8E
:0400A000F894FFCF02
:00000001FF
