:1000000010C027C016C016C014C013C012C011C043
:1000100010C00FC00EC00DC00CC00BC00AC009C07C
:1000200008C011241FBECFE5D2E0DEBFCDBF1BD07C
:100030003BC0E6CF1F920F920FB60F921124B19BD7
:1000400002C0D89A01C0D8980F900FBE0F901F9091
:1000500018951F920F920FB60F9211240F900FBE9A
:100060000F901F901895D7988AB38F678ABB8BB370
:100070008FEF8BBB87B3867F87BB88B38F6088BBCE
:1000800085B78F7B85BF479A009A85B7806285BF09
:1000900085B7886185BF85B7816085BF8BB7806470
:0C00A0008BBF78948895FECFF894FFCFBA
:00000001FF
